:100000000EC028C027C026C025C024C023C022C0DF
:1000100021C020C01FC01EC027C01CC01BC011248F
:100020001FBECFE5D2E0DEBFCDBF10E0A0E6B0E05E
:10003000E4E9F0E002C005900D92A036B107D9F7CF
:1000400020E0A0E6B0E001C01D92A236B207E1F7C1
:1000500002D01EC0D5CF81E0809361008FEC81BDBE
:1000600082E087BB88BBFFCF0F921F920FB60F9223
:1000700000248F939F9381E0909160009827909344
:1000800060009F918F910F900FBE1F900F90189559
:04009000F894FFCF12
:00000001FF
